:100000000C9488380C94B0380C94B0380C94B038F8
:100010000C94B0380C94B0380C94B0380C94B038C0
:100020000C94B0380C94B0380C94B0380C94D35174
:100030000C94B0380C94B0380C94B0380C94B038A0
:100040000C94B0380C94B0380C94B0380C94B03890
:100050000C94B0380C94B0380C94B0380C94B03880
:100060000C94B0380C94B0380C9442390C94B038DD
:100070000C94B0380C94B0380C94B0389B3C9F3C36
:10008000EA3CEA3CEA3CBD3CB33CE33CA63CAD3C2C
:10009000EA3CEA3CC63CEA3CEA3CEA3CEA3CDB3C63
:1000A000EA3CE63CB156B5567857B956BD56C156EE
:1000B0007857785700000000000061016E0163016D
:1000C0001901580100000000E20098005D019B0149
:1000D00000004A0127013101440100002E01000007
:1000E0009101980159005F008E00AB00BB006500D4
:1000F000740070726F6772616D6D65720075736503
:10010000722020202000C8470000B54800000000F1
:100110000000B5480000704A0000454B0000454B08
:100120000000CE4A0000454B0000464E0000C74B81
:10013000000047490000474900004749000047497F
:10014000000047490000474900004749000047496F
:100150000000E5490000554C00009E4C0000F84DA1
:100160000000B54E0000194D000000002204000000
:1001700001007F00030102E8180205040B000A05D4
:1001800082A204002204000005007F00030106E8AB
:100190001802050407007F00350803000D06060756
:1001A00008003F01800909003F01820A0A003F015F
:1001B00081A10C007F0078980D003F0102020E0023
:1001C0003F020B0B0F003F020C0C10007F000E0DC6
:1001D00011007F000F0F12007F00101013007F002E
:1001E000111114007F000E0D15007F000F0F160077
:1001F0007F00101017007F00111118001407000075
:1002000019008F0812121A007F000E0D1B00021435
:100210001C1C1C00140700001D008F0812121E0079
:100220007F000E0D1F0002141C1C23000B09151368
:1002300020001D0A17162100120B191822C13F02B7
:100240001B1A640006101C1C6523F80E2726660086
:100250000512282867007F001B1A6800030C292953
:100260006901040205046A000F132A2A6B001211A7
:100270002C2B8EFE020230308F00200D3131900089
:100280003F01333291000103343492817F023535CE
:1002900093001001373694000D0F3838950007157C
:1002A0002E2E960010013939990001033A3A970031
:1002B00006163F3F980002173B3B6D000F012D2DA6
:1002C0006C0110012F2F6100010906075E00210A51
:1002D0008B8B5F00210A8C8C6000091A8D8D9D012B
:1002E000100149499E007F004B4B9F0110014A4A73
:1002F000A0007F004C4C0C007F0078980D003F015F
:1003000002020E003F020B0B54007F005B5B5400A7
:100310007F00989855003F0102025C000518434198
:100320005D00051944425C00041C1C1C5D000F1B91
:10033000575854007F00555355003F0156540C0048
:100340007F0078985C0001181C1C540001031D1DDF
:10035000550001031E1E0C007F0078980D003F0120
:1003600002025C000E1D1C1C5D00031E1F1F5400BA
:100370007F00202055003F0121215C000F01222336
:100380005D000F012425C266C866D266DC66E066A1
:10039000E666EA66EE66F766FE6606670F6718674A
:1003A000216728672C6732673A6742674767526759
:1003B0005C67616768676C67726776677D6781678E
:1003C0008667906793679B67A067A667AA67B3670E
:1003D000B767C167C767CB67D267DC67E467E96760
:1003E000ED67F367F967006807680C6812681668BC
:1003F0001D6824682E6832683B68416846684E680C
:100400005B6868686E6875687D6884688B688F68EB
:1004100093689E68A968B368BC68C068C468C76808
:10042000CA68D968E268E768EE68F76803690C692A
:10043000156919691D6921692A692E693269366948
:100440003A693E69426946694A694E695269566924
:100450005A695E69626966696A696E697269766914
:100460007A697E6984698B69906995699A699F69DF
:10047000A669A969B069B769BB69BF69C369C7697A
:10048000CA69CD69CF69D269D669DA69DE69E2697C
:10049000E6692867EA69EE69F269F669FA69FE6950
:1004A000026A066A0A6A0E6A126A166A1A6A1E6A7C
:1004B000216A246A286A2C6ABB69336A386A3D6AF1
:1004C000426A476A4E6AD269536A596A606A656AC3
:1004D0006A6A21676F6A756A7B6A816A876A8E6A4F
:1004E000956A9C6AA36AAA6AB06AB76ABE6AC56A54
:1004F000CC6AD36ADA6AE16AE86AEF6AF56AF96A8D
:10050000FD6A016B056BEA69EE69096B0D6B116B96
:10051000156B196B1D6B216B256BE269E669296B05
:100520002D6B316B356B396B3D6BD669F269F669B2
:10053000416B456B496B4D6B516B556B596B5D6BEB
:10054000616B656B686B6B6B6F6B6F6A756A736BF6
:100550007A6B816B156B886B8F6B966B9D6B656A85
:100560006A6AA46BA96BAE6BB36BB86BBD6B536A55
:100570007B6A816AC26BC76BCE6BD36BD86BDE6B49
:10058000E46BEA6BF06BF66BFA6BFE6B036C086C5A
:10059000186C296C2F6C386C3E6C4C6C566C666C0D
:1005A0006E6C756C7A6C826C876C896C9A6CAB6CB7
:1005B000B26CB96CC06CC76CCE6CD26CD76C1A6A5A
:1005C000DC6CE16CE56CE96CEE6CF36CF76CFE6C6A
:1005D000056D0C6D136D156B176D096B1E6D256D1B
:1005E000296D2F6D346D3A6D416D436D456D496DCB
:1005F0004C6D526D586D5D6D636D696D706D776D8D
:100600007D6D846D8B6D926D996D9F6DA66DAD6DD9
:10061000B36DBB6D286AC06DC66D066ACD6D096B82
:10062000D26DF367D76DDC6DE06DE46DE86DEC6D58
:10063000F06DF46DF86DFC6D006E046E086E0D6E5D
:10064000126E146E166E196E066A1B6E0D6B5D6B64
:100650001E6E116B616B226E266E2C6E336E386EC1
:100660003E6E426E476E4B6E526E596E5E6E646E9B
:10067000696E706E766E90677A6E806E876E8E6E23
:10068000956E9B6EA06EA66EAB6EB06EB66EBC6EB7
:10069000536AC06EC66ECD6ED46EDA6EE16EE86ED1
:1006A000EF6EF66EFD6E046F2A690A6F0E6F126FA1
:1006B000166F1A6F1E6F226F296F2E6F356F3B6F8B
:1006C000406F476F4E6F546F5B6F626F696F6F6FF4
:1006D000756F7B6F826F886F8D6F946F9B6FA26F4A
:1006E000A96FB06FB76FBE6FC56FCC6FD36FD96F87
:1006F000E06FE76FEE6FF56FFC6F03700A70040038
:1007000004000400040005000500050006000600C2
:1007100007000700070008000800090009000A0098
:100720000B000B000C000D000E000E000F0010005F
:1007300011001200140015001600170019001A000D
:100740001C001E001F0021002300250028002A0095
:100750002D002F003200350039003C0040004300DE
:1007600047004C00500055005A00600065006C00C6
:10077000720079008000880090009900A200AC000F
:10078000B600C100CC00D900E600F300020111015F
:1007900022013301450159016E0184019B01B3011E
:1007A000CD01E90106022502460269028E02B50268
:1007B000DF020B0339036B039F03D60311045004BC
:1007C0009204D80422057005C4051C067906DD06CE
:1007D0004607B5072B08A8082D09B9094E0AEC0AE7
:1007E000930B450C010DC80D9B0E7A0F671063111A
:1007F0006D128713B214EF153F17A3181C1AFFFFD1
:10080000D8492140E237DB30D82AAF253D21651D8C
:10081000101A2B17A5146F128010CC0E4D0DFA0B69
:10082000CE0AC409D80805084907A1060A068305A7
:100830000A059C043A04E103900347030503C90237
:100840009202600232020902E301C001A0018301A9
:1008500068014F01390124011001FF00EE00DF00A3
:10086000D100C400B800AC00A20098008F0087003F
:100870007F00770071006A0064005F005A00550035
:1008800050004C004800440040003D003A00370052
:10089000340032002F002D002B00290027002500F6
:1008A0002300210020001E001D001C001A0019005A
:1008B0001800170016001500140013001200120093
:1008C0001100100010000F000E000E000D000D00B2
:1008D0000C000C000B000B000A000A0009000900C4
:1008E00009000800070007000600060005000500D3
:1008F0000400040003000300020002000100602B5A
:10090000B12B022C532CA62CF82C4C2DA02DF52D00
:100910004A2EA02EF62E4D2FA52FFD2F5630B0308B
:100920000A316531C1311D327A32D83236339533CE
:10093000F5335534B63418357B35DE354236A736B7
:100940000C377237D9374138A93812397C39E63932
:10095000523ABE3A2B3B993B073C773CE73C583D2B
:10096000CA3D3C3EB03E243F993F0F408640FE408A
:100970007641F0416A42E5426143DE435C44DB4438
:100980005B45DC455D46E0466347E8476D48F34814
:100990007B49034A8C4A174BA24B2E4CBB4C4A4D09
:1009A000D94D6A4EFB4E8E4F2150B6504C51E251FC
:1009B0007A521353AD534954E55482552156C156CA
:1009C0002000400080008100B500C9000001010145
:1009D0006A019201C001000202024002C002D40278
:1009E00000032403760300043E04B6040005A805B2
:1009F000000800000F0005001400EFFFFEFFF4FFE9
:100A000002001100ECFFFBFFF1FF00000F000500EA
:100A1000F9FF0A00FEFFF4FF02001100ECFFFBFFEC
:100A20000C000000000000000000C0FF00000000FB
:100A30000000000000000000C0FF000000000000F7
:100A40000000C0FF000000000000000000000000E7
:100A500000000000000000000000C0FF00000000D7
:100A600000000000C0FF000000000000F4FFFF7F56
:100A7000FF7FEFFFFEFFFF7F0200F6FFFF7FFF7F9C
:100A8000F1FF00000F00FF7FFF7FFF7FFEFFFF7F72
:100A900002001100FF7FFF7FFF7F00000F00FF7F3C
:100AA000FF7FEFFFFF7FF4FFFF7FFF7FECFFFF7F04
:100AB000F1FF0000F4FFFF7FFF7FEFFFFF7FF4FFF8
:100AC0000200F6FFFF7FFF7FF1FF00000F00FF7FB6
:100AD000FF7FEFFFFF7FF4FF02001100FF7FFF7F2A
:100AE000F1FF0000FF7F0500FF7FEFFFFEFFFF7FAC
:100AF0000200FF7F0700FF7FF1FF0000FF7F05007E
:100B0000FF7F0A00FF7F0F000200FF7F0700FF7FCB
:100B10000C000000FF7FEAFFF9FFFF7FFEFFFF7F71
:100B20000200FF7FECFFFBFFFF7F0000FF7F05005F
:100B30001400FF7FFEFFFF7F0200FF7F070016000B
:100B4000FF7F0000FF7F0500F9FFFF7FFEFFFF7FB3
:100B50000200F6FFFF7FFBFFFF7F0000FF7F050025
:100B6000FF7FEFFFFEFFFF7F0200FF7FECFFFBFF39
:100B7000FF7F0000FF7F0500FF7FEFFFFEFFFF7F8D
:100B80000200FF7F0700FBFF0C000000FF7F050055
:100B9000F9FFFF7FFEFFFF7F0200FF7FECFFFBFFFF
:100BA000F1FF0000F4FFFF7FF9FFFF7FFEFFFF7FF3
:100BB000FF7FFF7FECFFFBFFFF7F0000FF7F050053
:100BC000F9FFFF7FFEFFFF7F0200FF7FFF7FFF7FB8
:100BD000F1FF0000FF7FFF7FFF7FEFFFFEFFFF7F42
:100BE0000200F6FFFF7FFBFFFF7F0000FF7F050095
:100BF000FF7FFF7FFF7FF4FF0200FF7FECFFFBFF23
:100C0000FF7F0000FF7F0500F9FFFF7FFEFFFF7FF2
:100C10000200FF7F0700FBFFFF7F0000FF7F050052
:100C2000FF7FEFFFFEFFFF7F0200F6FFFF7FFF7FEA
:100C3000F1FF0000FF7F0500FF7F0A00FEFFFF7F3E
:100C4000FF7FF6FFFF7FFBFFFF7F0000F4FFFF7FCA
:100C5000FF7FFF7FFEFFFF7F0200FF7FFF7FFBFF25
:100C6000FF7F0000F4FFFF7FF9FFFF7FFF7FFF7F23
:100C70000200FF7FFF7FFBFFFF7F0000FF7FFF7F02
:100C8000F9FFFF7FFEFFFF7F0200FF7FFF7FFBFF7B
:100C9000FF7F0000FF7FFF7FF9FFFF7FFEFFF4FF74
:100CA000FF7FF6FFFF7FFF7FFF7F0000FF7FFF7F5B
:100CB000F9FFEFFFFEFFFF7FFF7FFF7FECFFFBFFF2
:100CC000FF7F55557777F5F5B5B56F6F0909494938
:100CD00049522549DBDBDF7611A919D5C16F01D156
:100CE0000E012C014A016801A401E0015802D00262
:100CF000C0037F007F0081FF81FF7F007F0081FFB5
:100D000081FF7F007F0081FF81FF7F007F0081FFE7
:100D100081FF7F0081FF7F0081FF7F0081FF7F00D7
:100D200081FF7F0081FF7F0081FF7F0081FF7F00C7
:100D300081FFC1FFC1FF7F00000081FF00000000B4
:100D40005800000000005800CEFFA8FF0000580027
:100D5000000013002C005D00FCFF2000CBFFA6FF6D
:100D600081FF750020009AFFCBFF6900CBFF5D007B
:100D7000CBFF58009BFF6B00A1FF5800A8FF32007B
:100D8000DAFF4100A8FF6500A1FF650081FF3F0079
:100D9000E1FF4600ACFF540090FF54009EFF70003E
:100DA0009EFF3600BAFF7F00ACFF7F0090FF54002B
:100DB000ACFFFE06FE07FE08C009F2090A0A220A75
:100DC0003A0A520A6A0A820A9A0AB20ACA0AE20A63
:100DD000FA0A120B2A0B420B120B5A0B720B8A0BDC
:100DE000A20BBA0BD20BEA0B020C1A0C320C4A0CF7
:100DF000620C7A0C920CAA0CFA0AC20CE00CF20CEF
:100E0000120D320D520D720D920D00000000000007
:100E100000000000000000000000000202030304C4
:100E2000050607080A0C0E1114180003040506072E
:100E3000090A0C0F12151A1F252D000405060809B2
:100E40000B0D1013171C2228313A00050607080A5B
:100E50000C0F1115191E242C353F00040506080936
:100E60000B0D1013171C2228313A00030405060746
:100E7000090A0C0F12151A1F252D00020203030484
:100E8000050607080A0C0E111418000000000000E7
:100E90000000000000000000000000FEFEFDFDFC60
:100EA000FBFAF9F8F6F4F2EFECE800FDFCFBFAF9D6
:100EB000F7F6F4F1EEEBE6E1DBD300FCFBFAF8F732
:100EC000F5F3F0EDE9E4DED8CFC600FBFAF9F8F669
:100ED000F4F1EFEBE7E2DCD4CBC100FCFBFAF8F76E
:100EE000F5F3F0EDE9E4DED8CFC600FDFCFBFAF93E
:100EF000F7F6F4F1EEEBE6E1DBD300FEFEFDFDFCE0
:100F0000FBFAF9F8F6F4F2EFECE800010102020353
:100F1000030404050608090B0D1000010102020379
:100F2000030404050608090B0D1000010102020369
:100F3000030404050608090B0D1000010102020359
:100F4000030404050608090B0D1000010102020349
:100F5000030404050608090B0D1000010102020339
:100F6000030404050608090B0D1000010102020329
:100F7000030404050608090B0D1000010102020319
:100F8000030404050608090B0D1000FFFFFEFEFD1B
:100F9000FDFCFCFBFAF8F7F5F3F000FFFFFEFEFDA9
:100FA000FDFCFCFBFAF8F7F5F3F000FFFFFEFEFD99
:100FB000FDFCFCFBFAF8F7F5F3F000FFFFFEFEFD89
:100FC000FDFCFCFBFAF8F7F5F3F000FFFFFEFEFD79
:100FD000FDFCFCFBFAF8F7F5F3F000FFFFFEFEFD69
:100FE000FDFCFCFBFAF8F7F5F3F000FFFFFEFEFD59
:100FF000FDFCFCFBFAF8F7F5F3F000FFFFFEFEFD49
:10100000FDFCFCFBFAF8F7F5F3F002020203020321
:1010100003040504070509070A0B0B0D0D11101237
:10102000151517191B1C201F242427292B2E30339C
:101030003537393E3F4146464B4C515255595C5E1F
:101040006164686B6D7074777A7C818287898C901B
:1010500093949A9B9EA3A3A9A9AEB1B2B6B9BBBF04
:10106000C0C3C7C8CBCDD1D2D4D8D8DCDDDFE2E352
:10107000E6E6E9EBEBEFEEF1F2F3F5F5F6F9F7FB67
:10108000F9FCFBFCFDFDFDFEFEFEFDFFFEFDFDFE91
:10109000FCFDFBFBFAFAF8F8F6F6F5F2F3F0EFEEEA
:1010A000ECEAE9E7E6E2E2E0DDDBD9D7D4D3D0CE63
:1010B000CAC9C6C4C0BEBCB8B6B3B1ADAAA8A4A2C2
:1010C0009E9C9995938F8D888783807D7A767471A5
:1010D0006D6A6865605F5C585553504D4A4745429C
:1010E0003F3D39383532312D2B2A262523201F1D2F
:1010F0001A1A1616141310100D0E0B0A0A080806F9
:1011000006050405020402020203011D1D1F1D1F26
:101110001F1F2020202220232123232323242525B1
:1011200024262725272728272929282A292B2A2C3E
:101130002A2D2B2D2D2D2E2E2E2F2F3030303230CC
:10114000313332323434323635313CF5FFFAF8FC83
:10115000F9F9F8F9F8F7F8F6F6F7F5F5F5F5F3F526
:10116000F3F2F3F2F2F1F2F0F0F0EFF0EEEEEFED79
:10117000EDECEEEBECEBEAECE9EAE9E9E9E8E8E7CB
:10118000E7E6E7E6E5E5E5E4E4E4E3E2E3E2E2E01E
:10119000E2E0E0E0DFDFDFDDDFDCDEDDDBDDDBDB6F
:1011A000DBD9DBDAD8DAD8D7D9D6D8D6D6D5D6D5C2
:1011B000D5D3D4D4D3D2D3D1D2D1D1CFD2CECFD014
:1011C000CECDCECECCCDCDCACBCEC609010606063D
:1011D000050707070907080A09090A0B0B0B0B0D7E
:1011E0000B0E0D0D0E0E0F0F100F1110111211130B
:1011F0001213141314151416161517171717191898
:10120000181A191A1B1A1B1C1C1B1E1C202120211A
:101210002222232124242324252525262626272887
:1012200027272A28282B292A2B2B2B2B2E2B2D2D19
:101230002E2D302D302F312F30332F3332323334A7
:1012400032353435343736333A383043ECFFF5F441
:10125000F8F7F3F5F7F2F4F4F3F2F3F2F1F2F1EF59
:10126000F1F0EFEFEFEEEEEDEDEDEDEBECECEAEBA8
:10127000EAE9EAE9E9E8E7E9E6E7E7E6E5E6E4E5F9
:10128000E5E3E3E4E2E2E3E1E1E1E0E1DFE0DEDF48
:10129000DEDEDEDCDEDBDDDBDCDADBDAD9DAD9D898
:1012A000D9D8D7D7D8D5D6D6D6D4D5D3D5D3D3D3E6
:1012B000D2D2D1D1D2CFD1D0CFCED0CDCECECDCB38
:1012C000CECCCBCBCCC9CBCBC6C9D0BC1303080D7D
:1012D00007090D090B0C0C0B0E0C0D0E0F0D0F104A
:1012E0000F101110101311121313131414141515D9
:1012F000161616161817181819181A191B1A1B1B68
:101300001B1C1D1D1C1E1E1D201E201F201F1E20FD
:101310001F211F231F2321242124232424262327A4
:1013200025272528282629282A282B282C2A2B2C33
:101330002C2B2E2C2F2C2F2F2E302F3130313034C0
:101340003034303730373138313A313B32FEF5FD09
:10135000F3FDF3FCF2FAF3F9F2F8F2F6F2F5F1F438
:10136000F2F2F2F0F2EFF1EFF0EEEFEDEFECEFEB87
:10137000EDEBECEAECEAEAE9E9EAE7E9E7E8E6E8D6
:10138000E4E8E4E5E5E5E2E5E3E2E3E2E1E1E2E029
:10139000E0DFE1DDE0DDDFDDDDDDDCDCDBDCDADB79
:1013A000DADAD8DAD8D9D7D8D6D7D6D7D4D7D3D5CA
:1013B000D4D4D2D4D2D2D2D1D2CFD2CED1CDD1CC1C
:1013C000D1CAD1C9CFCACFC7CFC6CFC5CE020B02B3
:1013D0000C030C050C060D070D080D0A0D0C0D0C69
:1013E0000E0D0F0E0F100F101012101311131115F8
:1013F00012151414151616161617181718181A1889
:101400001B191B191D1B1C1B1E1C1F1C1F1F292801
:1014100027282B2B29292B2B2D2B2B2C2E2D2E2C1B
:101420002E302F2E2F3031313030323432313234B1
:10143000353434323638353534383A3735373A3C46
:101440003837373D3F3A35394343382C3C72B9EF92
:10145000FEF2E4E5EEF2ECE7E6EDECEBE5E7E9ECD5
:10146000E6E6E5E8E8E6E4E3E7E6E3E3E2E5E4E22E
:10147000E0E2E2E3DFE0DFE1E1DDDEDFDEDFDCDC76
:10148000DDDDDDDADADCDBDBD9D8DADAD8D8D7D7BC
:10149000D9D7D5D5D7D6D5D4D4D4D5D3D2D2D4D202
:1014A000D2CFD1D2D1D0CDD0CFD0CECCCECDCFCC4B
:1014B000CACBCECCC9CAC9CBCCC7C7C8CBC9C5C497
:1014C000C7CAC9C1C1C7CAC7BDBCC8D4C48D47112A
:1014D000010E1C19120F121B17151117191A1515C9
:1014E000181C1918171B1B1C191A1C1E1C1B1C1E50
:1014F0001F1F1C1E1F21201F1F21232121212324E8
:1015000023222424262523262627272528272A2484
:101510002526292A2A2C2A29292827282A2B2E2E33
:101520002F2F2F2D2B2C2C2B2F3033333334332FC5
:10153000302E2F3034353839393835333131313474
:10154000393D4042403B372F2C2A313B506A85A61B
:10155000C2DBEEFAFEFDF7F0EAE5E2E5E5EAEDF0E2
:10156000F0EEECE8E7E3E2E4E5E8E8E9EAE8E6E4FF
:10157000E1E1DFE2E1E4E4E6E3E3E1DFDDDDDDDD5F
:10158000DFDFE1E0DFDEDCDBD9D8DAD9DCDBDCDD94
:10159000D9DAD8D5D5D5D5D7D6D9D8D7D7D4D2D2E8
:1015A000D0D1D1D2D5D4D4D4D1D0CDCDCBCDCDD036
:1015B000D0D2D0D0CCCBC7C7C7C8CACDCED0CFCA67
:1015C000C8C2C0BFBFC3CBCFD5D5D0C4AF977A5A9E
:1015D0003E2313060103090F161B1D1B1B151310B9
:1015E000101114171A1C1D1D1A1818151718191C7C
:1015F0001F1F1F201D1C1B1C1B1D1F2023232322FC
:101600002120201F212124262528272525242423A5
:101610002B2C2B2B2A292827262623232321232161
:101620002224232626282B2D2E3033353538383AE0
:1016300039393A37373632322F2C2B2926262425B2
:101640002426282B2F333A40485159636F798490D0
:101650009CA6B2BCC7D0D9E1E8EEF3F8F9FDFEFED6
:10166000FDFDFAF9F6F4EFEEEAE7E6E2E1DFDEDDB2
:10167000DDDEDCDFE0DFE2E3E5E5E7E8E9E9E9EA32
:10168000E8E9E7E6E4E4E1DFDEDBDBD8D8D6D5D570
:10169000D3D6D3D6D5D7D7D8DBDADBDEDCDEDEDEB9
:1016A000DEDCDCDAD9D8D5D3D1CFCECACBC7C8C619
:1016B000C7C5C8C7C9CACDCED1D3D5D7D9DBDADC27
:1016C000DBD9D8D6D0CBC8BEB9AEA79C91877B70EA
:1016D000645A4D433930271E18110D0905030202C3
:1016E000020304080A0C0F1316171B1D1F212123C8
:1016F00022232221211F1F1B1D1918191716161727
:10170000161819191B1C201F22242627282A2A2BC9
:101710002B4D4E4E515052545356565659595A5CB1
:101720005B5E5D60606162636465666768686B6A82
:101730006C6C6F6D70707272737475767777797A7E
:101740007A7B7D7C7E807E8281828385848686888A
:10175000888A898B8C8C8D8E8F90909292929594A2
:101760009596979898999A9B9C9B9E9D9F9FA0A1C8
:10177000A1A3A2A4A5A4A7A5A9A7A8AAABA9ADABFC
:10178000ADAEAEAEB1AFB1B2B2B2B4B5B4B5B6B83B
:10179000B6B8B9B9BABABCBABEBCBDBEBFC0BFC08C
:1017A000C2C0C4C1C4C4C4C5C6C5C7C7C8C8C9C9E6
:1017B000CACACBCBCCCCCECCCFCDD0CFD0D0D1D150
:1017C000D2D2D3D3D4D4D4D5D5D7D6D6D8D7D8DBC4
:1017D000D30901060807090C0B0C0F101012131483
:1017E0001617171A1A1B1D1F1E2022232325272612
:1017F000292A2B2B2D2F2F303233333537363A38D9
:101800003B3B3D3E3F4041424443464747484B49AE
:101810004D4C4E505151525455555659575A5A5C89
:101820005C5E5E5E626063626564676668686B6981
:101830006C6D6D6E6F707171747276757578787984
:101840007A7A7B7D7D7E7E81808182848385868697
:10185000878889898B8B8B8E8E8D909090929293B6
:10186000949496969699979A999B9B9C9D9D9F9EE2
:10187000A0A1A0A2A2A4A3A5A6A4A8A7A8A8AAAA1A
:10188000AAACABADAEADAFAFAFB1B2B1B2B3B4B461
:10189000B5B5B6B7B8B6BAB8BABABBBCBBBDBCBFB3
:1018A000BDC0BEC1C0C0C3C1C3C3C4C4C4C6C6C515
:1018B000C8C7C7C9C9C9C9CBCBCBCBCDCCCECDCE80
:1018C000CFCFCED1D1CFD3D1D1D4D3D2D4D7D1D5FC
:1018D000DCCA13020A0E090E0F100F141313171689
:1018E00018191B1B1D1D1F202222232526262929EE
:1018F000292D2C2D2F303132333435383639393CBF
:101900003B3C3F3F404142434446464749494A4C9D
:101910004D4D4E4D504F5251535455565659595A9C
:101920005A5D5C5E5F5F6261636365666667696995
:101930006A6C6B6E6D706F71717374737676777796
:101940007A797B7B7C7D7F7E8080828283848585A3
:10195000878788898A8A8C8C8D8D8F908F929193BE
:101960009394969497979899999A9C9A9E9C9E9FE7
:101970009FA0A1A2A1A4A3A5A4A7A5A8A8A8A9AB1C
:10198000A9ACACADACAFAEAFB0B0B2B1B3B3B3B560
:10199000B5B5B7B6B8B7B9B9BBB9BCBBBDBCBDBEB0
:1019A000BFBFC0C0C0C2C1C4C1C5C3C6C3C8C4C90B
:1019B000C5C9C8C9C8CCC8CCCBCCCCCDCECCD0CD79
:1019C000D0CFD1CFD4CED4D1D5D0D7D0D9D1D9D2F0
:1019D000DBD1DD000C030D071009110D130F1513DA
:1019E000161618181C191E1D1E2121222325252715
:1019F000282A282E2B2E2E313033323535373739E1
:101A00003A3A3D3C3F3F40414342464547464B48BA
:101A10004B4C4D4E53525456575757595A5B5D5A7B
:101A20005E5F6060606263646564666869676A6B74
:101A30006B6E6B6E6F70717171737574757677788C
:101A40007979797C7C7D7C7F7E81808181848483AF
:101A5000858687878889888C8B8B8C8D8F8E908FDD
:101A600090939292949397959598979999999A9C17
:101A70009C9C9C9E9EA0A09EA2A2A2A2A4A3A6A55E
:101A8000A5A7A7A8A8A9A9AAACABABACADAFAEAEB1
:101A9000AFB1B0B1B2B0B5B3B3B4B5B6B6B7B5B80F
:101AA000B9B9B8B9BABCBCBABBBDBFBDBEBDBFC277
:101AB000C0BFBFC3C4C1C2C2C5C6C4C4C3C9C7C7EF
:101AC000C4C8C9CCC7C6C9CECDC9C5CDD3D0C5C57C
:101AD000D3DFD2964910020F1E1E1413191F201BAC
:101AE000192123241F2225292726272B2D2D2B2C96
:101AF000313231313235383536383B3B3A3C3D4076
:101B0000403F41424445454547494A494A4D4D4E6B
:101B10004E505053534F505054535858595A5A5B83
:101B20005A5A5C5C5E616065636566656467656999
:101B3000686B6C6F6E706F706F71707373757778A0
:101B4000797A797A7A7A7B7C7E7E828183848284B8
:101B50008384858588888A8C8C8C8D8C8D8C8F8EE7
:101B6000919194949595969595959798999A9C9D11
:101B70009E9D9E9E9D9DA09FA2A2A4A6A5A6A6A551
:101B8000A5A6A6A7AAABABAEADADADADACAEACB0A5
:101B9000B1B1B5B3B5B5B4B3B3B4B5B5B8B9BBBCF1
:101BA000BBBCBAB9BBB8BCBCBEC0C2C2C3C1C1C059
:101BB000BEBFC0C3C4C7C9C9CAC7C6C4C2C4C5C7DB
:101BC000CBCFD1D1D0CDCBC4C5C3C8CCD4DCE1E11F
:101BD000DCCEB99F805F422514050103081118204F
:101BE000232323201B1B191B1E22252B2B2C2D2BC3
:101BF00029292A292E2F33353738373837353837C2
:101C00003B3C3F41434443434343434646494B4C9B
:101C10004F4F4F4F4E5051505150515050525051C4
:101C20005353545658585B5E5D6262656668696AD4
:101C30006C6C6D6D6E6E6D6F6D6F6E6E6F6F7071C3
:101C40007273747678797A7E7E7F838285858687C3
:101C5000888888888A878A878A888A888B8B8B8DF0
:101C60008E9090939496969A9A9C9D9DA09EA1A0EA
:101C7000A0A1A19FA19FA19FA0A0A1A2A1A3A5A552
:101C8000A7A8ABACADAFB1B2B3B4B6B5B6B6B6B645
:101C9000B5B6B4B4B4B3B3B3B4B3B5B5B7B8BABBEF
:101CA000BDC0C1C3C5C7C8C9CBC9CBCBC9C9C9C6CB
:101CB000C6C4C3C1C1C1BFC1C0C1C4C6C7CCCED1D7
:101CC000D5DADBE0E2E4E5E5E5E3E1DAD8CEC8BE6B
:101CD000B5A89D908376695A4F42362C2219130B72
:101CE00008040201020105080B0E13181B1F25270B
:101CF0002A2D30313232343333323130312F2E30DD
:101D00002E2F3031333337383A3E3E434447484B29
:101D10004C4E4E4F514F52030506090B0C0F10123B
:101D20001517171B1C1E20222426282A2B2E303183
:101D3000343538393B3E3F41434548484B4D4F5180
:101D4000525557585A5E5D61626565696A6C6E6F7F
:101D5000737475787A7B7E7F828484888A8A8E8F7A
:101D600090949597989B9E9DA2A2A4A7A9AAACAE79
:101D7000B1B2B4B6B8BABCBEC0C1C4C6C8C9CBCE75
:101D8000CFD2D3D5D8D9DADEDFE0E4E4E8E7ECEC73
:101D9000EFF0F3F4F7F8FAFEFDF9F9F6F4F2F1EEEC
:101DA000ECEBE9E6E4E3E1DEDDDADAD6D5D3D1CF58
:101DB000CDCBC9C7C5C3C2BFBDBBBAB7B6B3B2AF3F
:101DC000ADADA9A8A5A4A2A09E9C9A979794929025
:101DD0008E8C8B88868582817E7C7B79767573710B
:101DE0006E6D6B6966666360605D5B5958555351F3
:101DF000504D4C49474742433F3E3B3B37363432D8
:101E00002F2F2C2A28272323201E1C1B19161413BE
:101E1000100F0D0B08070404020405070A0B0E0E31
:101E200013121617191B1E1E22232428292B2C30AF
:101E300030343437383C3C3F40434546494A4D4EA8
:101E4000515255555A595D5E60636367686A6C6E9E
:101E50007072747678797D7D80828485888A8B8E95
:101E60008F929495979A9B9E9FA1A4A5A7AAAAAE8C
:101E7000AFB1B3B5B7B9BBBDBFC1C3C4C8C8CBCC84
:101E8000D0D0D2D6D6D8DBDCDFE1E2E4E6E9EBEB7A
:101E9000EFF0F2F5F6F7FBFCFFFCFCF9F6F5F3F2D8
:101EA000EEEEEAE9E8E5E3E1DFDDDCD9D7D5D4D130
:101EB000D0CCCCCAC7C6C3C1C0BDBDB8B8B6B4B11A
:101EC000B0ADADA9A8A5A5A1A09E9C9A9797949105
:101ED000918E8B8B888684837F7F7C7A79767472EF
:101EE000716E6D6A69656662605F5D5A58585452DA
:101EF000524E4D4A4A464542423E3E3A39383433C4
:101F0000312F2E2A2A26262321201C1C19181415AD
:101F100010100D0C090805030202030305070A0B44
:101F20000E1013141618191D1C21212426282A2CE2
:101F30002E30323336383A3B3F3F434445484B4AD4
:101F40004F4F535356585B5B5E60616565686A6CC2
:101F50006E7072747579797C7E8082848688898DB2
:101F60008E8F92949698999D9EA0A2A3A7A7AAACA3
:101F7000AEB0B2B4B6B8B9BDBEBFC2C4C6C8CACC92
:101F8000CFCFD2D4D6D7DADCDFDFE2E5E6E8E9ED81
:101F9000ECF0F2F5F5FAFAFDFCFFFEFCFBFAF6F5C3
:101FA000F1F1EEEBEBE7E8E3E4DFDFDDD9D8D7D3FF
:101FB000D3D0CECCCBC9C5C5C2BFBFBCBAB8B7B4ED
:101FC000B2B1ADADA9A9A6A4A2A09E9D9A989694DF
:101FD00092908E8D8989858582807F7B7A787674D0
:101FE00072716D6D6A67676461615D5C5B585654C0
:101FF00051514E4C4948474342413E3B3B373733B2
:1020000031312E2B2B28262422201D1B1B171713A2
:1020100013110D0C09070603020302020303040552
:1020200007080A0B0E101215161A1C1E202425284C
:102030002A2C2E31323536393A3C3D414144454710
:10204000494C4D50515357575B5C5F616366676AFB
:102050006C6E7171757679797D7E808185858889D0
:102060008C8E90919496999A9CA0A1A3A6A8A9AEB3
:10207000ADB1B3B4B7B9BABDBEC0C2C4C6C7CACB8E
:10208000CDD1D0D4D7D7DBDCE0E2E4E6E9ECEEEF6B
:10209000F3F4F6F8F9FBFCFDFDFDFFFDFEFDFCFB96
:1020A000F9F8F6F5F2F0EEECE8E8E3E3DFDCDCD794
:1020B000D7D3D2D0CDCCC9C8C6C3C3C0BFBCBABAAF
:1020C000B6B5B2B1AFACAAA8A6A4A0A09D9A9897A5
:1020D00093938F8E8B8B878683837F7F7C7A7976B1
:1020E0007472716E6C6A686563625E5C5B595455AC
:1020F00051504D4B49484642433F3E3C3B383635B4
:1021000032312E2C2B272623201F1B1A1714130FB6
:102110000E0C0909060603040203011B28590F0DC2
:10212000010012333E0D0C06000F455D0E0C07003A
:102130000A546E0D0A0800172C570F0C01000D1DD4
:10214000500D080000062E510C03000009335F0FEC
:1021500003000306496307030E090001010202039D
:10216000030404050506060707080809090A0A0BFF
:102170000B0C0C0D0D0E0E0F0001010000010102F1
:102180000201010202030302020303040403030425
:1021900004050504040505060605050606070706E9
:1021A0000607070808070708080909080809090AAF
:1021B0000A09090A0A0B0B0A0A0B0B0C0C0B0B0C75
:1021C0000C0D0D0C0C0D0D0E0E0D0D0E0E0F0F0E39
:1021D0000E0F0001020201000001020102030302CE
:1021E00001010203020304040302020304030405C1
:1021F0000504030304050405060605040405060595
:102200000607070605050607060708080706060766
:102210000807080909080707080908090A0A090838
:1022200008090A090A0B0B0A09090A0B0A0B0C0C0C
:102230000B0A0A0B0C0B0C0D0D0C0B0B0C0D0C0DE3
:102240000E0E0D0C0C0D0E0D0E0F0F0E0D0D0E0FB4
:10225000000101000001020201000001020102026E
:10226000010102030302010102030203030202034C
:102270000404030202030403040403030405050425
:102280000303040504050504040506060504040506
:1022900006050606050506070706050506070607DF
:1022A00007060607080807060607080708080707BD
:1022B00008090908070708090809090808090A0A96
:1022C000090808090A090A0A09090A0B0B0A090977
:1022D0000A0B0A0B0B0A0A0B0C0C0B0A0A0B0C0B51
:1022E0000C0C0B0B0C0D0D0C0B0B0C0D0C0D0D0C2D
:1022F0000C0D0E0E0D0C0C0D0E0D0E0E0D0D0E0F09
:102300000F0E0D0D0E0F0202020202020202020265
:10231000020202020202020202020202020202029D
:10232000020202020202020202020202020202028D
:10233000020202020202020202020202020202027D
:102340000202020202030303030303030303030362
:102350000404040404050505050606060707080825
:10236000090A0A0B0C0D0E0F1012131516181A1C61
:102370001E212326292D3034373B4044494E5358E3
:102380005D63696E747A80868C92979DA3A8ADB2C6
:10239000B7BCC0C5C9CCD0D3D7DADCDFE2E4E6E80D
:1023A000EAEBEDEEF0F1F2F3F4F5F6F6F7F8F8F902
:1023B000F9FAFAFAFBFBFBFBFCFCFCFCFCFDFDFD67
:1023C000FDFDFDFDFDFDFDFDFDFEFEFEFEFEFEFE36
:1023D000FEFEFEFEFEFEFEFEFEFEFEFEFEFEFEFE1D
:1023E000FEFEFEFEFEFEFEFEFEFEFEFEFEFEFEFE0D
:1023F000FEFEFEFEFEFEFEFEFEFEFEFEFEFEFEFEFD
:10240000FEFEFEFEFEFE0004090E13171C20252909
:102410002D3135393D4144484C4F5356595C60632A
:1024200066696C6F717477797C7F818486888B8D07
:102430008F919496989A9C9EA0A1A3A5A7A9AAACB7
:10244000AEAFB1B2B4B5B7B8BABBBCBEBFC0C1C302
:10245000C4C5C6C7C8C9CACBCDCECECFD0D1D2D3C2
:10246000D4D5D6D7D7D8D9DADADBDCDDDDDEDFDFCD
:10247000E0E1E1E2E2E3E3E4E5E5E6E6E7E7E8E818
:10248000E9E9E9EAEAEBEBECECECEDEDEEEEEEEF90
:10249000EFEFF0F0F0F1F1F1F1F2F2F2F3F3F3F328
:1024A000F4F4F4F4F5F5F5F5F5F6F6F6F6F6F7F7D7
:1024B000F7F7F7F8F8F8F8F8F8F8F9F9F9F9F9F999
:1024C000F9FAFAFAFAFAFAFAFAFBFBFBFBFBFBFB66
:1024D000FBFBFBFCFCFCFCFCFCFCFCFCFCFCFCFD3E
:1024E000FDFDFDFDFDFDFDFDFDFDFDFDFDFDFDFE1B
:1024F000FEFEFEFEFEFEFEFEFEFEFEFEFEFEFEFEFC
:10250000FEFEFEFEFEFFFFFF705D524B45403B3876
:1025100035322F2D2B2927252322201F1E1C1B1A65
:1025200019181716151413121111100F0E0E0D0C89
:102530000C0B0A0A09090807070606050504040327
:102540000302020101000002020202020202020270
:10255000020202020202020202020202020202025B
:10256000020202020202020202020202020202024B
:10257000020202020202020202020202020202023B
:102580000202020202020280FFFFFFFFFFFFFFFFC5
:10259000FFFFFFFFFFFFFFFFFFFFFFFFFFFFFFFF4B
:1025A000FFFFFFFFFFFFFFFFFFFFFFFFFFFFFFFF3B
:1025B000FFFFFFFFFFFFFFFFFFFFFFFFFFFFFFFF2B
:1025C000FFFFFFFFFFFFFF0200060D13191F262C60
:1025D00032373D43484D52575C6064686C6F72758A
:1025E000787A7C7E7F808181828181807F7E7C7A07
:1025F0007875726F6C6864605C57524D48433D3724
:10260000322C261F19130D0600FDF6F0EAE4DDD783
:10261000D1CCC6C0BBB6B1ACA7A39F9B9794918EFB
:102620008B8987858483828282828283848587895D
:102630008B8E9194979B9FA3A7ACB1B6BBC0C6CC21
:10264000D1D7DDE4EAF0F6FD0080808080808080D4
:1026500080B0B0B0B0B0B0B0B0DADADADADADADA84
:10266000DAF5F5F5F5F5F5F5F5FFFFFFFFFFFFFFEF
:10267000FFF5F5F5F5F5F5F5F5DADADADADADADABD
:10268000DAB0B0B0B0B0B0B0B08080808080808070
:10269000804F4F4F4F4F4F4F4F252525252525253F
:1026A000250A0A0A0A0A0A0A0A00000000000000B5
:1026B000000A0A0A0A0A0A0A0A25252525252525C7
:1026C000254F4F4F4F4F4F4F4F807F868C92989E94
:1026D000A5AAB0B6BCC1C6CBD0D5DADEE2E6EAED3B
:1026E000F0F3F5F8FAFBFDFEFEFFFFFFFEFEFDFB3B
:1026F000FAF8F5F3F0EDEAE6E2DEDAD5D0CBC6C1C2
:10270000BCB6B0AAA59E98928C868079736D6761DD
:102710005A554F49433E39342F2A25211D19151288
:102720000F0C0A0705040201010000000101020468
:1027300005070A0C0F1215191D21252A2F34393EC1
:1027400043494F555A61676D73797F8080808080DF
:1027500081838487898D91959AA0A6ADB3BAC2C9A9
:10276000D0D7DEE4EAEFF4F8FBFDFFFFFFFDFBF856
:10277000F4EFEAE4DED7D0C9C2BAB3ADA6A09A9509
:10278000918D898784838180808080807F7F7F7F17
:102790007E7C7B7876726E6A655F59524C453D3619
:1027A0002F28211B15100B0704020000000204074C
:1027B0000B10151B21282F363D454C52595F656A79
:1027C0006E7276787B7C7E7F7F7F7F80808080804A
:1027D000808080808181828486898D91969CA3AA45
:1027E000B2BBC4CCD5DEE6EDF3F8FCFEFFFEFCF890
:1027F000F3EDE6DED5CCC4BBB2AAA39C96918D893D
:10280000868482818180808080808080807F7F7FBD
:102810007F7F7F7F7E7E7D7B7976726E69635C557C
:102820004D443B332A2119120C0703010001030711
:102830000C1219212A333B444D555C63696E727644
:10284000797B7D7E7E7F7F7F7F7F7F7F8000040816
:102850000C1014181C2024282D3135393D414549D0
:102860004D5155595D6165696D7175797D82868AB5
:102870008E92969A9EA2A6AAAEB2B6BABEC2C6CA98
:10288000CED2D7DBDFE3E7EBEFF3F7FBFFFFFBF79E
:10289000F3EFEBE7E3DFDBD7D2CECAC6C2BEBAB6F0
:1028A000B2AEAAA6A29E9A96928E8A86827D7975EB
:1028B000716D6965615D5955514D4945413D3935E8
:1028C000312D2824201C1814100C08040000181A9C
:1028D0001D202225282A2D303336393C3F424548D9
:1028E0004B4E5155585B5F6266696D7074777B7FA4
:1028F00083868A8E92969A9EA2A6AAAEB2B6BBBFD5
:10290000C3C8CCD1D5DADEE3E7ECF1F5FAFF181A4B
:102910001D202225282A2D303336393C3F42454898
:102920004B4E5155585B5F6266696D7074777B7F63
:1029300083868A8E92969A9EA2A6AAAEB2B6BBBF94
:10294000C3C8CCD1D5DADEE3E7ECF1F5FAFF180421
:102950000404040404040404040404040404040437
:1029600004040404040404040404040404040481AA
:10297000FFFFFFFFFFFFFFFFFFFFFFFFFFFFFFFF67
:10298000FFFFFFFFFFFFFFFFFFFFFFFFFFFFFF0452
:1029900004040404040404040404040404040404F7
:1029A000040404040404040404040404040404816A
:1029B000FFFFFFFFFFFFFFFFFFFFFFFFFFFFFFFF27
:1029C000FFFFFFFFFFFFFFFFFFFFFFFFFFFFFF0412
:1029D000000D1A26323E49535D666D747A7E8183FE
:1029E0008483817E7A746D665D53493E32261A0D6A
:1029F00000FAEEE1D5C9BEB4AAA19A938E89868465
:102A0000848486898E939AA1AAB4BEC9D5E1EEFAD0
:102A1000000D1A26323E49535D666D747A7E8183BD
:102A20008483817E7A746D665D53493E32261A0D29
:102A300000FAEEE1D5C9BEB4AAA19A938E89868424
:102A4000848486898E939AA1AAB4BEC9D5E1EEFA90
:102A50000080808080B0B0B0B0DADADADAF5F5F56F
:102A6000F5FFFFFFFFF5F5F5F5DADADADAB0B0B029
:102A7000B0808080804F4F4F4F252525250A0A0AB8
:102A80000A000000000A0A0A0A252525254F4F4F93
:102A90004F80808080B0B0B0B0DADADADAF5F5F5E0
:102AA000F5FFFFFFFFF5F5F5F5DADADADAB0B0B0E9
:102AB000B0808080804F4F4F4F252525250A0A0A78
:102AC0000A000000000A0A0A0A252525254F4F4F53
:102AD0004F80808C98A5B0BCC6D0DAE2EAF0F5FA57
:102AE000FDFEFFFEFDFAF5F0EAE2DAD0C6BCB0A5C5
:102AF000988C8073675A4F43392F251D150F0A058F
:102B00000201000102050A0F151D252F39434F5AF6
:102B10006773808C98A5B0BCC6D0DAE2EAF0F5FA0B
:102B2000FDFEFFFEFDFAF5F0EAE2DAD0C6BCB0A584
:102B3000988C8073675A4F43392F251D150F0A054E
:102B40000201000102050A0F151D252F39434F5AB6
:102B500067738080808083878D95A0ADBAC9D7E4E4
:102B6000EFF8FDFFFDF8EFE4D7C9BAADA0958D876A
:102B7000838080807F7F7C78726A5F524536281B15
:102B8000100702000207101B283645525F6A727850
:102B90007C7F7F80808083878D95A0ADBAC9D7E484
:102BA000EFF8FDFFFDF8EFE4D7C9BAADA0958D872A
:102BB000838080807F7F7C78726A5F524536281BD5
:102BC000100702000207101B283645525F6A727810
:102BD0007C7F7F80808080808182868D96A3B2C436
:102BE000D5E6F3FCFFFCF3E6D5C4B2A3968D86824E
:102BF00081808080807F7F7F7E7D7972695C4D3BA4
:102C00002A190C0300030C192A3B4D5C6972797D6B
:102C10007E7F7F7F808080808182868D96A3B2C4F4
:102C2000D5E6F3FCFFFCF3E6D5C4B2A3968D86820D
:102C300081808080807F7F7F7E7D7972695C4D3B63
:102C40002A190C0300030C192A3B4D5C6972797D2B
:102C50007E7F7F7F8000081018202831394149513C
:102C60005961697179828A929AA2AAB2BAC2CAD209
:102C7000DBE3EBF3FBFFF7EFE7DFD7CEC6BEB6AE85
:102C8000A69E968E867D756D655D554D453D352DAF
:102C9000241C140C04000810182028313941495113
:102CA0005961697179828A929AA2AAB2BAC2CAD2C9
:102CB000DBE3EBF3FBFFF7EFE7DFD7CEC6BEB6AE45
:102CC000A69E968E867D756D655D554D453D352D6F
:102CD000241C140C040018191B1C1D1F2021222465
:102CE000252628292A2C2D2F303133343637393AEE
:102CF0003C3D3F404243454648494B4C4E50515362
:102D0000545658595B5D5E6062636567686A6C6EB5
:102D10006F71737577787A7C7E8082838587898BE3
:102D20008D8F91939597999A9C9EA0A2A4A7A9ABE9
:102D3000ADAFB1B3B5B7B9BBBDC0C2C4C6C8CACDCB
:102D4000CFD1D3D5D8DADCDEE1E3E5E8EAECEEF189
:102D5000F3F5F8FAFDFF186C6C666F777A7A9B9042
:102D60009D9299A2929BAB9FA28B8B73686F685BBD
:102D7000584F4B42423B402A2E1F212323303333EE
:102D800042374D585D71858089838E8997A4AFC382
:102D9000C3C7DBD3E7EDE9F8F8F6FFEDFDEDEBE0B7
:102DA000D0AFA48B77685D584925301F130D161AD4
:102DB000251F2C2A2C302C2C372C4B585F7E8999C0
:102DC000A89DB6C5CCC7D0CECEB8BFC1AFABA4A46A
:102DD0009F949B92908B7A6C676E665F665A5D6279
:102DE0005A4E4E4E565D6975696464565F667277D9
:102DF0007378757C6B6B69534C443E4C4949455321
:102E0000534A506770787F8B947F7C7E69757A8394
:102E10009790A8ACAFC8D3DFF6FAFDFFF8F1E2DB7C
:102E2000DABEB2ADA69A8984775A452D2010141EB9
:102E300023253136343B393B444950556469667724
:102E4000839AA3AFC7C5BEC0BBBEB9C0CCC7CAD4E6
:102E5000C5CAC5B7BBA19E8D677A6C55514D4D460D
:102E6000504B46464D3E393A48414D51554D5D66B1
:102E70007D929C9C98887F6861595D535858596031
:102E80006B666C757F7D8B8F9B8D877C78696861A5
:102E900071747A77858793AFCEDBF4FFFAE8D9C5F2
:102EA000BAA7B6B4B1B1AE998A7D664E4B3F36260D
:102EB000211A121C29273C48585869726F6972718F
:102EC00071849BA1ACB6CABEC2C2B9A9ACB2CAE0F9
:102ED000FCFCE8DBCBAEA69F8F7A644538454849B9
:102EE000495955494544343B37424C4C454142626F
:102EF000778EA1AF9E94877A746E676A62626D76F0
:102F00007785828181818B9C9E999895786E646487
:102F10006966707D6C62637794B5D3FCFFE5CEB2D1
:102F20009487889FA29F9E958C74707367585046B3
:102F3000392F2F3B46413F464B4E64767A7A7E8549
:102F400076738795A9B5DAEFD8C4AD977B84A9D1FC
:102F5000FBF9FFEBC9B9ADB5A27864493734456CCC
:102F6000837A624732101B3E494849391E050C4599
:102F70007484A2A99B87898E887C7D7D868D9DBC6B
:102F8000BCA7AB9F8D8F97BBB9BAC5BE976B666662
:102F9000606182986D492F33476AB4E8F6D3AB90ED
:102FA0005F3D487085837B838063607D7F6E5F6556
:102FB0005652606B8573635B4D4A63717C95A09933
:102FC000856A79859BB0DFFFF1C1A7866B5C89BEFE
:102FD000E7E7EFE4B6A4A4BAAB796449303C4F7E8E
:102FE0008684614E2F18254B52534E3C1C0E1553B0
:102FF000748BA1A4908488867F7775757C8A9BB733
:10300000B3A7A993868895B6B7C3C6BD8E67676513
:10301000646F939E6A47333B517BC1EBEAC7A48B35
:103020005B3F4E6D787A767F7B63627871645C601B
:103030004F545D6D7D7564584D54677880A2A59797
:1030400080737E8E9DBAE6FFE6C4A5876C6391BF50
:10305000E1E9E6D7AC9FA2B19F765F4430435F873A
:103060008A885B4B231D334C4B51482D1010185749
:1030700075919E9A8B8683807B736D717D8EA1BCCA
:10308000B7ACAD8C878CA0BAC4D9D9B98A6669644B
:103090007184A6996142353B5C8DD3E8E5B7A47F86
:1030A000513C505E6F6E7875795D636E715F6157EC
:1030B0004E555C658A77695155586E7A8DADAA94E4
:1030C0007C6F8086A5C4F3FFDCBA9E76686C9EC5D3
:1030D000E3EBE2C6A69CA2B193715836324351731A
:1030E0007E93845C422D4C4F6573636E5337221779
:1030F0001F46789ABDB5A68E5F4D3A45606EA2A96F
:10310000B7AD8761525B7DAABEDBE1B9A070737F6A
:1031100098A8A2A4927E60362D427DA3E1FFF9FA21
:10312000C1814F2B343F6981A5AD997E4C3F2D362F
:1031300047455E5C696D443D31334D6586ABB19F5B
:103140008C63535F6D99B2EDF8EDDDB194867560D7
:103150007394C2FDF1F8E7D4C38A685047525153C3
:10316000628087877453373A4C5F756F6E6A4B3550
:103170002321335F8AA9BAB495785F4542596685A1
:103180009AAEB2977A5B556786AAC3D1CFAD8274E7
:10319000708DA3A19FA18C81543D325381B5E9F973
:1031A000FFEDB16F443C3A607E94AEA2916F433A1A
:1031B00033424552635F6C5F40403439536F91A88E
:1031C000A79976625359738ABEECFAEDCFAE8D8221
:1031D000685E769BCCEDEEEEDAD4A97E6048525361
:1031E0007A8999A7B4C3CFDBE4ECF4FAFEFEFBF8CE
:1031F000F3ECE1D6CABBAC9D8E7F706053463A318A
:103200002A27232224293036414D58646F7D8B981C
:10321000A3ADB7C0C7CDD1D2D1CDC9C3BAAFA397E3
:1032200089796A5A4D3E3024190E060301010003C4
:103230000B17212B374755637382919EAAB6C3CAD9
:10324000D0D6D9DBD7D4D0CAC1B6ACA0928375672B
:103250005B50453B35302C2B2C2F353C4753606D54
:103260007A7F838B969FA5A8ADB2B5BABEBFB9B21F
:10327000AEAAA3978E877C6F625749382B231A1208
:103280000B0606020001060D172029313B45515E51
:103290006A747C828A939B9EA3A6A8A7A5A39D93EC
:1032A0008A847F776C635C574E4745423F42474B69
:1032B0004C515F6B747D8A97A0A8B5C7D2DBE3EC55
:1032C000F2F5F7F9FEFAF8F3ECE3DAD1C7BAADA1FB
:1032D000978C827970665F5A595857585B60656E53
:1032E000777F857C7A87938C75685F5A5D666C669C
:1032F00058514D41322F363B3B3B3B2D19100B0EA5
:10330000171B20261D0B0200122B3B362F29262BC4
:103310002D3841413F44515A585D636A686873785B
:10332000736F7887877C7C8795979AA0A09EA0B0C2
:10333000BEBBC0D0DDDBD0CBD0C9C0CDEFFDFDF62C
:10334000F2EFEBE2E2EBE9EBE9E9E4DDD2C7B9B594
:10335000BEC7C2B7B0A5958E939E9E958A817C7597
:103360007E878584939DA7A79B89755E514C515993
:1033700066738393A1B0C0C6C1B4A28C766B666E2F
:103380007E8DA5B5C2C6C0B4A18D7F7570737F91C7
:10339000A6BBC6D3DADEE2DDD3C5AE9C8A7B777EE0
:1033A0008FABC8E6F9FFF5DDB98F694D3D3E4A6048
:1033B0007B919FA5A7A19A968D8577645445342962
:1033C000241F202635465053554A35221B212213EF
:1033D0000F1C2A3A465B778D92948F7F6C5E58560D
:1033E000596475848F938D918D6E57402C272C3A9C
:1033F00038323A3C464F556A706155553C211D1193
:103400001B272342575D6459574D3C4D5551535B23
:103410006A8BA6A0ACB0A6B4B09E977C726C6461B7
:103420005D708797B4C5CFCFC7B9A08D7E747C83FC
:1034300097B9CFCFCDDCD6CFDCCFCDBD918B877404
:103440006E6A5B443C5168685D726C49365BBDD8FE
:10345000875D749BB6AABBECFFE8E2E6D3BFB0A8D9
:10346000A085818D8F878B78747965564F5652531E
:103470006E5F4A5648444C434C4F473F45483431B1
:103480003831292C3529403D2140392C4F5D5A5285
:103490005B5E617C6E657062696D5F665A576A66D5
:1034A0006468696D6E7982808E9B9EA4AFB1B1BB5A
:1034B000B8BFCDD3CBBBD2D1BFDDD5CBCEACA9ACC1
:1034C000A9A49B957B68707B7368797B65628AE5AC
:1034D000FFBB95A4BFCFBBBEDADEC6BEC8C2B5BEB9
:1034E000B8A5999288876A997C71999E797FBA90DC
:1034F0007AC8A776BD9E86B79C9FA4AF9883B582F5
:103500006AAC7F4E9888299F831293662B706761FF
:1035100039696D257A6E32695E5060546D604889F4
:10352000775B98898999A7BEA2C5DFC5D6E7EADF90
:10353000EFEDF0F8FBF6C5F9F9ACFFEFB2DCC39C98
:103540008DA1835D675026252B1F19222319162B69
:103550005866423136454D4244525448445A543FCD
:103560007770386E80546A6197866FABBF8FA0F01A
:10357000B191F3C697F3C9ACF3D3C9D7EAC6A6F3A2
:10358000BC94F2B972DDC342D0B42FBF8A4B8771AD
:10359000763E75821E75792E66664E63547270553E
:1035A000968167AB9993B2B4CDB2CEE8C4D8F1E8B6
:1035B000DDF1E8E8EBECE8B1E8EF8DE8DB8CC5B6CF
:1035C0008E7289723A4B45161109060A000A0306E3
:1035D0000A030A0A0A090A0A0A0A0A0A010A20143C
:1035E0000A4E3F0A5D7144618570B94DBDDD5FA330
:1035F000FC735FFD8383FF7F6FFDCA80ECE57D6A0E
:10360000FFDA5DFDD944E6DF3F82C67977769563C0
:1036100043AC4F44B86744B07C3A636A83304D870B
:1036200095596299678357C36D7DCA7D8F768DECFE
:103630008FB2E88D8FACB58D6A8DCA548F9D548A38
:103640006FB06352A9342C792942013662006C2391
:10365000346A206A676A606A6C6A6C6A6C0F6C799B
:103660001A6A83326C9F548F85B836FF21D2FD1CB5
:10367000A3FF1A18FD1E66FF1117FDB413FFD0102B
:1036800011FFFD10FDFF07E5FD420BD7E80C59FFC8
:103690002F05F86D04FFD905FDF3046397B4041CEE
:1036A000ACEF0438E2056105D70504E50405041C08
:1036B000D5056ACB0405475C0405048B04053D056C
:1036C0003205DE5204F83605C950940589EA10FF28
:1036D0005C86FD57FDF6FDE5FCFFFDFFFDFF2FFFBE
:1036E000FD31FDD025FFFD2DFDB88473655D575874
:1036F0005D646D7172706D676563646770798590E4
:1037000099A0A19D9488796A615E616D7A8B9BAA6C
:10371000B5BCC1C3C4C3C1C0C0C3C5C9CCC9C3B78C
:10372000A6947F6C5A4B413B3A3B3E43454849483F
:103730004544464E5C6F869FB6CBDBE9F1F3EFE67E
:10374000D9C7B39E8C7B6F635547392C1E140A036F
:1037500000020A1626394D60717D878B8E8F959EEB
:10376000A9B4BDC5C8C7C1B5A59484767471747673
:103770007478828B939E9A978E827D8082909EA58C
:10378000ACAFACA8A395866F503B2F2631404E615D
:10379000717B8B9CACC2D2D7DEE2E3EAF6FDFFFA86
:1037A000E7D0B89C8B79685F53474545454B4C45FE
:1037B0003D2F211F242D4055667B8EA1BFD5E3EF01
:1037C000EFE7DBCBB8ADA09287725C5042342D1F7F
:1037D000150E0A101F32455A687176797B7F797908
:1037E00079787980879099958E877976657F92A68A
:1037F000B2ADADB2B5C0D1D1CDC7B2ADB0ADB9C823
:10380000C0B9B09F9895867B6C482D1804040C0CA9
:10381000131B1A2D4A638CADBCCAD1D1DDECF3FD6C
:10382000FFEADBCCB9B9B5ABA99D87827D767A7802
:10383000685C462B241F181F1F18181D2446657F1F
:103840009DADB0B9BCBCC7C5C0BEB09C9A939095A5
:103850008C807A716A787F878E897A6F6562675B00
:103860004F412718181824373C434D526566859CF4
:10387000B3C1BCB9BBB9C0CFCFCECBBAB6B9B5BB5B
:10388000C3B6AB9F8B84837B7871584535211A1B57
:103890001211100A172E44698694A2A8A6AFBBC0C5
:1038A000CACEC3BEB9B3BCC2C1C5BDAAA59F9598B7
:1038B00095877C6A524B4336322713080100172F35
:1038C0004462747E8E9BA6B8C0C1C6C0B5BBBCC0E6
:1038D000C9C6C0BBB2A9AEADAAA697827365606225
:1038E0005649381C090400091A222E404C666B8F79
:1038F000AEC9D9D6D4D5D4D8E0DEDAD8CFCFD3D19B
:10390000D4D6C4AF9B857D7D7C8184796E614D4228
:1039100039281C100309192B475B646B6F6F778084
:1039200082898A8281878FA8BBC6D0CABBB3A6977B
:10393000918C837F776E717473746C594C444457C7
:103940006C7F95A3A9B4B9BCC3BEB3A7968482818A
:10395000848E909398979090897F7464544C4B54C4
:10396000605E56462B14080004111926394B6B7102
:1039700099BFDCECECEBECEBECECE5E2E1DFE3E94E
:10398000EAEAE4CEB1967F74767D8B999C9A90801A
:10399000705E452F1703000B172732323133363E46
:1039A000424242403E42506A8FB1C8D4D4CABDABF5
:1039B0009589827E81858B9AAAB4BCB5A4968E8F98
:1039C0009EAEBCCAD0D4D6D5D1CABAA0846750475F
:1039D00044464E5763717A767161514031262633E1
:1039E0004A606965573F261407070E1524374F7143
:1039F0007DA6CADBDFD6CECACACDCDCDCCCACAC958
:103A0000C9CBCDCEC5B19A84746F727F909FA6A5A5
:103A10009C8B755A402819151F2B3231291C1514FF
:103A20001618191B1D222A3A537391ACBFCBCEC76F
:103A3000B59F8C817F8490A4BDDAF3FFFBECDBCED5
:103A4000CBCFD7DFE4E6E7E3DACEBBA58B705B4DE7
:103A5000443F3C3B3F48535A595245382C2320227F
:103A600031485E6E747164534030241B1821345405
:103A70007D88AFC3BCA68870646571829098938678
:103A8000726666748BA2AFAA9A816B5B575B666E97
:103A900074736B5C4C3D363A485E727E7C6E594561
:103AA000393437404D5D6971726D686A7890ABBF8B
:103AB000C6C1B3A39488848A9DB8D8F3FFFBEAD427
:103AC000C0B3AEAEB2B9BFC1BEB4A59589868B975F
:103AD000A3A9A79C8C7A6B5F555150535A626663B9
:103AE0005B55545964717C82837C6A50331D1A2F54
:103AF000588885B0C6C6B9A18B81878E959D9E904A
:103B0000775D5253607892A29F978B7E767A8594E8
:103B10009DA3A29278614F433D42525B5D584F3E58
:103B20002C272F3D4B5C728388888787858B9AA8CA
:103B3000AFABA18E7A6D66656A7F9FC2DDEFF9F348
:103B4000E5DBD9D7D0CED2D4CEC5B9A68D787276E2
:103B50007E8891948E88817A716A6F767A8389885B
:103B60007A695B4E45464C5050504A36200C000353
:103B70001B4C857C929DABB9BAB7BBC5C0ADA196B5
:103B80007F604A484A4D57666F758195A5B1C3D786
:103B9000E2E7EAE8D5B6A0958770615746322B3147
:103BA00035323D5C778493A6B3AFAEB6BEB7A99B62
:103BB000876E58493A2B293238374258697285A2A4
:103BC000B6C4D3E9EEE0D0CCC6B3A49B8D735B52F0
:103BD000514D4C55606A7A909C9EA3B6C8CDD2D305
:103BE000C7AA937F63432F26180C0A0801000B1DF8
:103BF0002937577C648CBDA8817A6475BFD6D2D032
:103C00009256504C6CACAE9A8F5F4F7B9ABDE0BF22
:103C100094846672AEBDB7B3743D38304C81755E26
:103C20004F1F124878ADDAC4A08F6B78B4C9D0C9E1
:103C30008958575277AFA38E773521486393B8944C
:103C400075654565AAC1CEBF795149467EB6ADA11D
:103C5000844643657AB3D0A68B704669ACC9E9E562
:103C6000A47F6C5F8DB69F895D13061D3770825EE1
:103C70004917003A645E86C09D655C4155AFCED35E
:103C8000D68C4A535982D3D4B6A15F467A96BBE20A
:103C9000B06E542C3A87A4ABB066272C2A529E995A
:103CA0007E68281A5987BEF2CD967A4E5EA7BECBA3
:103CB000C97E4A545990DED7BD9A442B576FA3CF83
:103CC0009761431434829CB3A95121202470BEC053
:103CD000BC9C4E4B788ED0F1B3855D27509CB9DFEC
:103CE000D9865B524C91D3C6B480281E3D5FAAC2D0
:103CF0008F6A26003A5E7A85919CA7B1BCC5CDD566
:103D0000DBE0E4E6E5E6E5E1DFDBD8D1CBC5BDB736
:103D1000B1ACAAA8A8A8A8A9A9AAAAAAAAAAADAFFC
:103D2000B2B4B6B9BCBFC1C5C7C8C8C7C7C4C2BC96
:103D3000B6ADA49B8E8274685C4E41362B21180F61
:103D4000080502000002070D131B242C363D454ECA
:103D5000545C60676C7073737473706C69686562CF
:103D6000605F5C5955514D4945413E3B38383B3EBB
:103D70004348515A64707A7D899195A0B0C5D5DECB
:103D8000E6E9ECEFF2F2F0E1D1C3BCBFBFBCB3A7F0
:103D90009EA3ADB9C3C8C8C9CBCCCCC8C0BCBFC535
:103DA000C9D4E3F0FBFFFCF8F2E9E4DED8D5D1C9D1
:103DB000BCAD9D979A9E9B8B71553C281F1F22215D
:103DC000160C070D1B2D393F3C36343943515555E0
:103DD000575755514E4C4E4E4E4E483C2D211F21AB
:103DE0002A343A33251610131C2B373C3A332D2B2B
:103DF0002A282A36485C717D87877F797F8D9DAE22
:103E0000BBC1BEB9C0C7C7C0A28972646E777B77D9
:103E10006D66738DA1AFB5B4B7B7BDC1BEB2A8A46E
:103E2000A9AAB7CCE1EFF0E4DACBBEB8B0A9A4A25E
:103E30009A8A766866738A948C70523C2C2F425B07
:103E40006D706C70839FBCCECEC1AB988F939A96E9
:103E500087796C5F54453C39383A3730221201007B
:103E6000081C303C372514132039597581837E7125
:103E7000685E544C5163738187867D787B8E989CF5
:103E8000ADC9DFDFDCF1FFFCEECEB9A28D919192DE
:103E9000948B83828D928A878383848DA2AEA7962A
:103EA000847F7B808D959C9B8E8B868B9295929246
:103EB0009692847264564F4F4F442E1D0F0407167E
:103EC000344E5F6A7B90A6B7BDBBB2A391827D7F63
:103ED0007867584D4643403F444B514D4847443F17
:103EE0003D404D585F5D5B595D6B8096A6ADB1B1AD
:103EF000A99F91867D7D868489868378747E949936
:103F0000909CBAD5D8D6EFFFFBECD5CBBBA7A69F2C
:103F10009FA49F988C888069605B595B637D9192B8
:103F200082695E57555551524E45484E606F7779BC
:103F30007E85867E746B5A44322A2117151410111F
:103F40001A2F465D7084959D9F9C97969085766DFF
:103F50006A63564C45464C5359616C727070788157
:103F600085848485858689929CA4ADB8BEBFC0C473
:103F7000C8C5C0B4ACA4A19F918B838D746F7D958F
:103F8000998990ACC5C3BED7E6DFCAAEA99B82842F
:103F900084848E8E8E8E97A59084898E949EBCD3B9
:103FA000CEBEA582625A584A37332C231E2831339D
:103FB0002E37465361727F7D72645A535354585D55
:103FC00064646262686D798EA2A5A09D957D6A5B2E
:103FD00054514C413325252C302E3545483E353340
:103FE000353F464A4C545F626D84A4C1DFF4FFFB49
:103FF000F6F4EFEDEAECE6E6E3C8AC8D9277747F79
:104000008685777174776D686E706A5C4F5454481A
:104010004F5858616A76869BBFBDB4C6D2D7DDEAD9
:10402000F5E7E6E3B68B7F7C6A49484936251915E2
:104030000A0006162A4C799DB3C3C6BDC0CFD7DD92
:10404000EDF6EAC8A48B7770798C918E8E836254DA
:104050005151515252493D3A3F3A2E303736271886
:1040600007000A181E1F303F40455E88ADCCEAF9B4
:10407000F3E3DAD4D8E7F5F9FCF9E1BC92CBE4E953
:10408000929D9202173C27212109102F4E235F2277
:104090001C6938A197CFB4D095DC87C1A0EBDAEECC
:1040A000A463EEDDE6EFEDEDECECE886E4EECACEDF
:1040B000A9D1CC6FCDE6AB8BA08D6D62332E5000B5
:1040C0000A271E050C026A4C10524E6F2D1C7F41B0
:1040D0000B03290201440C1C2E31312E294539389D
:1040E000524E60604A6871C6EAECD1DED5E2DFDF8D
:1040F000E3E5C2B7E4E3D3ABACC3C9AC70CB604576
:104100004E78B0BE8F4B4D6E7956705D9BD4D8CC37
:10411000AA8793C1CED9C3B49EA9C6C7BEBAC2A34B
:10412000B3A29B9E8D746F7981756C866F59545CB8
:104130006F7158314D101036584E22020A315720F7
:10414000604F24112754654A223C22122A3E3A32FB
:10415000282C3F5D1B424E514A4E5956566463759A
:104160006C748DB4B89E8F8A8FF6FDF1D3B2B8D837
:10417000FEFDFBFCD1E6FFF6B09CC5F7FDF6609EA8
:104180004C62697DAAA168608B7D5D73756297C979
:10419000BD956D70A9E8DACBC0A596ADBAAAA5A366
:1041A0009288958D7977787A76633A29394B515090
:1041B00043333445555C564330313A3F3B2F200F53
:1041C000101D2F3935302E35405468695949434107
:1041D0004856584F413E454D56636764646D74724E
:1041E00081898084A9C2AD9798B1E9FEFEFFDDC345
:1041F000D5FCFEFEFEF9D7E5FDE5AAB1DFF1E09EB4
:10420000A9705B666C84947D606B7669666C687A75
:10421000ABBBA88D8197C0C9BFB6A79598A7A59C31
:1042200099928B8C89776A6F726F634935384A59D6
:104230005B55473E4758605C503D30313C443F320F
:10424000221F273749514E44434C5A6B7269564AD4
:10425000484C565E5B524F535B606B73726E707767
:10426000787F8584859BB5B9A8A1ACCBEEFFF8E13A
:10427000C7C3DBF8FDF4EEDED9E7E1B59FAEC5C5F7
:10428000A9808E9DABB9C7D3DDE7EFF5FAFEFFFF3E
:10429000FEFBF7F2EBE4DBD3C9BFB5ACA39B938B7A
:1042A00085807B787574737475777A7D8185898D47
:1042B0009195989B9D9FA0A09F9E9C9996928E8978
:1042C00084807B76716D69666361605F5F60626444
:1042D000676A6E72767A7E8285888A8B8C8B8A87F3
:1042E00084807A746C645C534A3F362C241B140D12
:1042F000080401000001050A1018222C38465462F7
:10430000718080BEEAF5E4C4A79EAAC5E2F7FFFE6D
:10431000F8F0E8DBC7AD978D93A6BDCAC3A681644C
:104320005B6D8FB2C5BEA4826B687A96B0BBB6A532
:1043300091807670696360677890A4A99772492C20
:104340002C4C7FB3D3D3B68D68565B6F87989F9CF8
:10435000968F897F6E5A49444F698597947D5B415A
:104360003A4D7092A49B7E593C3542596C7268520A
:104370003824170F070100081D3A5561583B1B0AE6
:1043800015418080C7F6FFE6BC988996B4D7F0FB4C
:10439000FAF4EEE7DAC6AC968E99B5D6E9E4C69B98
:1043A0007A7187B1DBF0E7C59A7A7385A3BCC6BA88
:1043B000A2856E5F544A3F3B4358758F97845B2CB0
:1043C0000E133C7FC3ECF1D3A47B68708AA7BCC4F6
:1043D000C0B5ABA0917A5D4539435C7A8C85653A6E
:1043E000180F244E788E8564391B16294A66716928
:1043F00053392518110B05040F284B6976674319AB
:104400000009388080ABC3C1AC9792A6CBEFFFF315
:10441000D4B4A5AFCBE6EEDDB996858FACC9D5C7D0
:10442000A8897D8BACCCD9CDAD8D7F89A5BFC7B513
:104430008F69555A738B927F5C392A365677867E00
:10444000644B45597FA6BAB49B817988A9C9D5C662
:10445000A3806D748CA5AA96704A38405A768072F3
:10446000523226335374827657382A3653707A691B
:104470004622111934505A4B2B0C011034596D68D7
:10448000533E3C54808093A6B7C9D8E4EFF7FCFFB5
:10449000FFFDF9F3EBE2D8CEC4B9AFA79F9995928F
:1044A000908F8F909294969899999895918C857DFC
:1044B00073695E52463A30271F19151314181E27C8
:1044C000313E4E5E6E7F91A1B1C1CED8E1E7EBECFB
:1044D000EAE6E0D8CFC5B9ADA1968C827A736E6A50
:1044E00067666667696B6D6F70706F6D6A6660583E
:1044F00050463B31271D140C060200000308101B18
:10450000273648596C808095A9BDCFDFEBF5FCFFBD
:10451000FFFCF6EEE3D6C9B9AB9C8F8379716A676D
:104520006566686C72787F878D9397999A98958E57
:10453000867C7063544636291C1109030000030A67
:1045400014203042566A7F95A9BDCFDFEBF5FCFF02
:10455000FFFCF6EEE3D6C9B9AB9C8F8379716A672D
:104560006566686C72787F878D9397999A98958E17
:10457000867C7063544636291C1109030000030A27
:1045800014203042566A8080B9E0EBDFCBC0C7DA36
:10459000EBECD8B79B93A6CAEEFFF4D3AD928B9306
:1045A0009D9983644B49638FBCD6D3BA9B84808921
:1045B00091896E462519294B6E8077593722213112
:1045C00043483C271922477FB8DDE6D8C3B7BCCEA5
:1045D000DEDDC8A6887F91B4D6E6DAB991766E762C
:1045E0007F7B64452C2943709CB6B49B7C66626CCF
:1045F000746D522C0B011135596C64482713142526
:10460000383F3420141F468080A9CBDBD8C7AD9635
:10461000898C9DB9D9F2FFFDEDD5BAA69B9AA0A9C8
:10462000B0B2AEA4978C8480807F7D79716A666811
:104630007180919FA5A194806D61627089A6BFCDA4
:10464000CAB59673574A4E627F9DB1B5A88C694A28
:1046500035323F59768F9D9E927F6B5E5A606E7F9A
:104660008E9799958E868280807F7B73685B514D93
:104670004F565F656459452A1202000D2646627343
:1046800076695238272434568080C8F8FFE3B68F05
:10469000808AA7C5DAE4E7EBF3FAF9E7C59E8480E0
:1046A00095B7D2D7C29A7461677F98A291704D3E38
:1046B0004B6F99B7BDAB8C72676B7781878A91A47A
:1046C000BDD2D5BD8B522A24457FBADBD5AD74420D
:1046D0002A2D425B6E75787E8894988D735442487B
:1046E0006690B4C1B28F6E5D6780989E8B653D28E1
:1046F0002D486A7F7B613A1806050C14181B253A71
:1047000058757F70491C0007378080C5F3FFEAC5E4
:10471000A39294A3B2B8B4AEAEB5C2CCCABCA99CA5
:104720009EB1CADBD7BC9472636E8BA8B5A88763B1
:104730004B4B607D949B9282777884939B9A938E67
:10474000929CA7A48D64371A1D437FBCE2E5C89BE9
:10475000725B58636D716C65646C7B87887D6D647A
:104760006B829FB4B49C78574A5774919C8D6B436D
:104770002824354E6163564335333D4A51514B47EA
:104780004D5C6B6D5C3A15010C3A8080BFEDFFF615
:10479000DDC2B1ACAFB3B3AEA8A7ADB4B8B3A4900B
:1047A000827F8A9BA8A7977F69616A7F95A09A8775
:1047B00072666A7C92A2A59C8D838189939A9A9550
:1047C0008F8C8D8D836B4A2A1A23497FB6DCE5D501
:1047D000B5947C727273706A65656C767E7C726368
:1047E0005A5D6D8395998D78655F6A7F959E9680F9
:1047F0006858576475807D6F5B4C474B52585751D2
:104800004C4C50534E3D220901124080797F8489DF
:1048100091959AA0A5ABAFB1B5BAC0C2C6CBCFD463
:10482000D8DBDCDAD6CBB5A08D725039271508005D
:1048300003101C293C556B7A8795A0A3A3A2A09EC8
:104840009B97959794959894908E887E73696156FE
:104850004D4847494C505B69747C878E9497938E82
:104860008A847A726964615E595C606061646568BB
:104870006967696B6F72747980878B91949A9B9941
:1048800095928D88807A77747171737579BACDD964
:10489000E7F6FAFAFFFFF5EAE4DACBBDB3A6998FA3
:1048A000877B736E68605956524D494646474A4D5C
:1048B0005159616A747B848E959A9B9FA09E9B9AA6
:1048C00096918F8B858383827F80848586898C8E69
:1048D0008F9193929193918F8E8E8D898887858306
:1048E000827F7B7975706A65605A57545352515272
:1048F000545556575859595957565452504F4E4C73
:104900004B484848464C565C63748895A5BAACCD74
:10491000DEF3FBDEBFAC8759433A2F2A38464C5CA6
:104920006A7377818683868C8A868381786F6862D2
:104930005856595D64707C848E9596928D867B73F3
:104940006F6A696D73777D8688898A8984817E7BA9
:1049500077787B7C81898F929698948F8981767104
:104960006E6D6F7A848E9AA5A8A8A8A399928A8161
:1049700078787774757B807E868F959CACB8BBC643
:10498000CDC1AEA186573629100015344B74ACBD8D
:10499000D2DDE9F7FFFBF3ECE2CFBAA594847161B5
:1049A0005955514C4D55595C60686D71777D8289C0
:1049B00091989EA5ADB2B3B3B2AFA89D91867C6E1F
:1049C0006058554F4C4D53585F66707A828A929A60
:1049D000A0A5A9ADB1B2B2B1AEAAA39A93897D72D6
:1049E0006B635D5855555556585C6063676A6D70CA
:1049F0007173737372706E6A67635E5955524F4A72
:104A00004A4B48484C4F4F50586067778792A6BD35
:104A1000878F95969594959CA0A2A9ABA9A4A2A1D5
:104A2000A4ABAEB3BCBFBEBDBDC0C0C6CECFC6A6D4
:104A300085652D000A2223376B8E8F8F999EA2A940
:104A4000B5C2C0B19E7B4E363227223C5D686E797E
:104A5000848A919CACB9BFBCAC8F74634F393C4D18
:104A600054555B6464636874829198959188745C12
:104A700052504B4E53565C5F5D616C787F858D8DD7
:104A8000877F7673737273757776716B6D73797FC9
:104A9000878F8E949DA2A9B2BBC3C7D5E2E2E4EE94
:104AA000EEEAE5F6E5CCDAD4BFB7B09890817A6843
:104AB000594D3F3E3B2121291E16252525293445E8
:104AC000464B5E6F7480949FA5B0C2C9C7D0DCE02E
:104AD000DBD6DEDCCBC8CFB5A6A5978B7A6C5F544E
:104AE00047392C2B220D2115000D1C151320242ACB
:104AF00037464E535C6870757B847E89928A8C8EB3
:104B00008B9089898B7C88837C837A7B817B838073
:104B1000818F909FA3A7B7C0BECDE1CFBBD9EAC616
:104B2000BBD0BE9EA7B1916F707A634042502F13E5
:104B30002C330C001D20101A1D2333313B4B505ACF
:104B4000656B707579818989838B908C8A8B8A8556
:104B50008889817E82817D7E7E7C7C888A838A9220
:104B60009A9EA6ACB1BEC2CADADADDE7E3EAE5D5C1
:104B7000E7F2CDB8CFCFA497A68E6C6875663F33A9
:104B8000494021273B20123843282E495152626E5A
:104B9000727C90747A797B7F7D777270727374788F
:104BA0007C818183878A8D8C8A9091949A9EA5AE10
:104BB000B7B5B6C6C2C6CFC9CDC5BBBDBEBDBABEF0
:104BC000C0BDA579676435002567645473989B9DC3
:104BD000B1C1BDA17F63565C51343551544C6A94C8
:104BE000A2A2A9AAA39E9078686154444355616328
:104BF0007189959CA5A3998E7E6A5A4C373642449A
:104C00004C606B7883868A897C716962554F5056F7
:104C10005D646A74BADCBA8AA5EAFFE6DAD5B496AE
:104C20009E9F81717D72452944738A7E6A697E9C4C
:104C3000B4C0BDB0AAAFA99797A89F7150525F6446
:104C400067645143516B787C8590908A8C9BAAACA9
:104C50009E8D807A7D84806E6060636267768697C1
:104C60009A8C8DA5C0C1AC989496979485797570EF
:104C700066636B7877685D626C77797269696F7566
:104C800073716F695C55595A544E463F3E424542D6
:104C90003E41557CBACADD9B82CBFFDDBACFEBDF4C
:104CA000C5C9DED3A08AADC09160667C7964524EDE
:104CB000575C575A66645B67848F837F91ACB6A953
:104CC0009DA6B2B0A7A59C8E898E8C7C675F676F0E
:104CD000635250596A7C77626F9EAE9E9CADB8C09D
:104CE000C8BFB3B4BBB7AA9A89878A7E61525556AA
:104CF0004B3C31313B3B3333343B4B4F42435763A7
:104D00005E58565B676758525D65554A545B5A60FA
:104D1000768C816379CA94A1B3D3D7CFECFFEAE351
:104D2000EEEAC9B9CFA86B828D4E36422E292718DC
:104D30001E1F273542504836717D2E4A9E5C4D8598
:104D40006D70777B89757191927380978882908757
:104D5000878E838A877489877380787681757C854E
:104D6000737B95806F8B9C838496919F8A9FC97675
:104D700091E5A282C0CCB3B9CAD3DCD9DAD2BEBE27
:104D8000A9A3A3634E73531A242E0E02141B0C12F4
:104D900038433C59778194C0BE96C0FBD1BEEAFF30
:104DA000EBEFFAF2EFF1EBECE8C8BED7C9A397A797
:104DB000927382865B476361413E4236343C3C37A6
:104DC00033313F534C3B4F645F6179776B7F9C98E5
:104DD0008E98A3A6B2BBBAB6B1C4D5BFB7D6D0BD64
:104DE000CECEB5B5C0B7A49C9E998A827D6A5D5F20
:104DF0005E493B3F3D3233332823312C32291D3766
:104E00002B332D3C2C3A473F354A41484E435165A0
:104E10006F625B81A48684C0D3EECA8498F3FFA13D
:104E20005B637C776B6F6D62668BB1C5C2A994A61C
:104E3000CBC0865A5B6B675D5F605C6988A2A99F87
:104E400091909FA896756062666361615C5C6D86F7
:104E50009697918F96A1A2937E727170727D7A6DF2
:104E6000819D9C9FA99F9DA095887D6E6F76726B9A
:104E700070787F868786837B747472665C5A6268FA
:104E800069646871746D6C6E6864615E5F5C5457D0
:104E90005D5C5957575F78A7D383B0D4EBF3EDDD52
:104EA000C9B5A398918E89827A726D6B6E7885935D
:104EB0009FA7A9A7A0968C827C7673727374747373
:104EC00072706C6763646B778799A7ADA794795903
:104ED0003A2214141F3246596B7F93A8BCD0E2EEDD
:104EE000EEE0C7A8896D5B545A697A8A969D9E9BAD
:104EF00096918F8E8D8D8E8F8E8B867F766B615B7C
:104F0000595B626E7D8A9397958F877F7874706AFC
:104F10005E4D3824150F162F558384ACCCE1EAE69C
:104F2000D7C4AF9E918A8680776B5B4B3D35384600
:104F30005E7A96AEBCBEB5A48E77645B5C636C761D
:104F40007D807F7C7B7F899AADC0CDD1CAB59670BC
:104F50004C2E1C171E2E42566775818D9AABC0D4FD
:104F6000E4EBE5D3B6916C4D383034425568788225
:104F700086858281858C959FA6A69D8B745D4C430A
:104F800046536B88A4BBC9CCC5B7A6978A827C77E9
:104F90007064523D2A1C171F375B848397A5ADB2FE
:104FA000B6BBC2CDD9E3E6E4DFD7D1CECFCFCBC2FB
:104FB000B5A6988E8884807A7064574E4B4E5356AF
:104FC00055514C494C545E687074737070757E888E
:104FD0009095938C8684868A8E908C837872737772
:104FE0007C7D7B756F6D7179838C91918E8D91999C
:104FF000A3AEB5B8B5B0ACABAFB3B6B3AA9D91870D
:10500000817D7973695B4C3F36323233302A231D00
:105010001B1F28343F474B4F545E6E838BAFB1A8A4
:10502000B1B48E595EA5E0D19D95BDD8C39D816771
:105030004E5481ACB0A097844F26428BAB8F7C9AA4
:10504000B7A177799CA58467749AB9BC9F735B6795
:105050007D83879CA6814C4D7D8854305C9FA886BB
:1050600086ACB4865C6179818598A5906343486974
:105070008E987D5E668789624B6685735775BEDC48
:10508000B27D696252547FAEB49A80653F29436D08
:105090006530205DA4A7734E505854618B87A0A43F
:1050A000A0A7AA947579A7CEC6A7A3BED0C5AE9D6A
:1050B0008E7F84A1BDC0B6B2A6866C7EABC0AEA208
:1050C000B4C7B89E9EB3B8A29096ADC0C1AE918051
:1050D00086929595A1A68D6A6A868B68506A92958C
:1050E0007E7D9396785C5E6B6F6F7A8172543F41E0
:1050F000556B705E4A4F62634A3B4C5F5442558326
:10510000957C5B4F4B42445F7E827364543D3043D9
:105110005E5A3B335A888C6D575A61606B87838D1A
:1051200092959A9D9C999EAAB6B8B5B7C0C7C8C5B6
:10513000C3C2C1C4CCD3D5D5D5D4CFCACED7DBD882
:10514000D5D8DBD7D1CFD2D1CBC6C5C7C9C8C1B896
:10515000B1AFAFACA9A7A59C928F928F837A7C81C7
:105160007D7470716F665D5A59555252504940397D
:10517000383B3D3B36303032302A26292C2A262A2D
:105180003337332D2C2C2C2E353D403F3E3C3A3AC4
:10519000414A4D494B5764686564686C7077839CDD
:1051A000A2A997898C9595979294919CA0ABAFAA50
:1051B000A69D8C7B7885868589858D9DA2AFAC94D4
:1051C000674A4F5759585E5A63666E6762585E6207
:1051D0005348333737476978736B8DA19E86635B7D
:1051E0004F4852536390B1B390828A8F85747B7E0F
:1051F000798982BEDFFDFFE5C1D0F0B58065779487
:105200009075859EBFFDF9A266392C242028394A65
:105210007EAAA57E6C79714E373D4645586E6C9CD2
:1052200095AEB7C4AA8B849EDAE1B665303C72BBFA
:10523000FFF39D64737F69524B566472809EBBAAD4
:10524000A6988071688AAE9B72505E64585B677DD9
:10525000AFC8B68E726D86959EC3C892706C88A1D9
:105260009C8F6291B1A1885B334C421F26519DC433
:10527000CBCAB3A4A3A8C19B855C64A5D5A35F4F8B
:1052800081A265412036405E675517023D7A7C4613
:105290002C325065663C1C3E7094A295A2B2B39C21
:1052A000958FA5A07B7EA0BCCBCCE9FAFFFBD2A258
:1052B00095A5BDC2B8ABACBFBDAEA19FA39C947F6A
:1052C0006B7185A09D6C36364E59564426233C534F
:1052D000523D3B546B717162605B5D696F62404926
:1052E0005E87908268615A625E5E575C6D81817AEA
:1052F0007A98CBCDB596A3C5D6C79186807B8E8C88
:10530000716F7F9186644D3D3A4559766F523F5398
:105310007277695336427281837D8896A19688861A
:10532000878F84A1C7CCBEAEB2C9C4BAC9E1DDD6ED
:10533000CFB7A49B9E9F88796A6C797E7E776A50EE
:10534000536A6A635349523F1B000910102D413BB9
:10535000303C677E776B778C9E9780797E7E8C7EE3
:10536000867E80979E917E524A7E837357647E89A3
:10537000897E84B2E0ECD8B7D4E7EAC9AC969B8DBD
:105380007E796673828773614C5468797E795E4E4C
:10539000504E47495B64646E848473737E8B98912E
:1053A0007E7B8483909BA5AEB7BFC7CED4D9DEE207
:1053B000E5E7EAECECEBEBEBECECECECEAE7E5E355
:1053C000E0DDD9D5D2CECAC7C4C1BEBCBBB9B7B562
:1053D000B5B5B4B2B1AFADAAA7A5A39F9A97949162
:1053E0008D8884817E7974706D6B67625E5C5A57BC
:1053F0005452514F4D4C4D4C4A48474543403D3A1D
:1054000037332F2C2824211E1D1A17151515161693
:1054100016161516171A1D2023282E333A424B5301
:105420005C67758385B1D0DFDED6CECBCFD5DBDE32
:10543000DEDCDBDCDFE3E8EBE8DFD5CDC7C2BCB404
:10544000A99C8E858283868785817D78736F6A6843
:10545000696B6C6B6B6C70767D848787837E7B79E0
:105460007978787A7F85898A888887837E7A7A7E38
:10547000848C929596969697989997938E89858025
:105480007C7B7B7E7F7C7366584D46403A342C2271
:105490001A17191E232627252323262D3336332BAF
:1054A000222232568584BDE2EFEADBC9BBB7BCC01D
:1054B000BFB6ACA29B989A9FA2A09A96969AA0A4D7
:1054C000A7A7A3998C7F767273777D807E7A74709C
:1054D0006C6B6D7074777979787472737981868565
:1054E000807A7572747C878F8E87807C7C81888EB1
:1054F000908D8988888A8D91959695918D888382E3
:10550000858A8E8F8B8275685E5A5A5D62676B6B77
:1055100067625F62686A665F564B4241464A463937
:10552000271712214A845E6D8097B0CBE1F6FDFF0C
:10553000F9EBDBC5AE9074563C2D211E1C22272FA3
:105540003C4958616C6F74777D83868E939BA2ACC7
:10555000B5BBC3C4C5BCB2A7998A75655243373180
:105560002F30373E4B596775818F979FA3A5A6A50E
:10557000A59F9F9C9B979594908E8B88807C736948
:1055800062595750504F51575F69707E86939A9F6A
:10559000A7A9ABA6A69D97928C88817D7B736E642C
:1055A000584A434049555E89817D7A7670665A4AE9
:1055B0004540464F5D6D8097B0CCE2F6FFFEFAEABB
:1055C000DCC5AF9072563B2C1F1D1B21252D3B487F
:1055D00057616B7073797D85878F939BA3AAB6BB48
:1055E000C4C2C1BAB2A597887664504237302F2D15
:1055F000373E4C5A6577849297A0A3A6A8A5A5A08C
:105600009E9B9B97959492908B8880797168635A42
:10561000564F4F4F515A626A73808B939EA3AAAA2A
:10562000AAA6A29E96928C897576767B7F868D94AB
:105630009EA3A9AAAAA69E968C83776F6762605FD5
:1056400063666B6F71757573675D5658647692AC5F
:10565000C6D9E6F0FAFFECD1B19072584739322F33
:10566000323B4551575B595555555A606A77889D6D
:10567000B1C4D2DADAD1C5B2A18A756251494446C1
:105680004A52595D64656A6A6B6D6D7177838F9D4F
:10569000AAB3BBBDBEB8AEA0918372675D58555525
:1056A000595C63666D7072757577787873685C6144
:1056B0007291B3D2EAF6FFFCF5DBB88A5E3D241F97
:1056C000202B343F4F5E6D74777672727B8C9EB167
:1056D000BDC9CBC7C0AC97775941302B2D38435447
:1056E0006473838C9292928D90959BA3A7ABA7A68F
:1056F0009D90816D5B48413D414A576572818E990D
:105700009D9B9B969591929191918E8A8780766AC6
:105710006055504E5359656F7B88919A9B9E9A9421
:105720008D878480807B7A777177887F706B6364E4
:105730005D635F6A6B7D899EACBDCFDBEAEFFCF9F0
:10574000FEF1EBD6C6AF9D826C553F2E1A120507AF
:10575000000807121727303D4C5762677377807D2A
:1057600086818681858286868A90959FA2AEB1BE0B
:10577000BEC6C5CAC4C2B9B3AA9F93857C6B665323
:10578000524441383B373B3B41494E5E5F6B6E793B
:105790007D86858A8C8C8D8C908E928D939097933C
:1057A0009A999E9B979B969D938D8876675658668F
:1057B0007F9FBED3E7F4F9F0D4B07B4B260B0100FA
:1057C00009203E6388A7BCC3C0B7AA9F91887E7991
:1057D0007A7F83878078685A514845464B5E718D41
:1057E000A7BBCACDCAC0AD9A7E66534541464E5C42
:1057F0006875838C929494918D8B8C8D90919292FC
:105800008E8B84786D6159535358626D7B8B9AA44B
:10581000AAADA8A094887E746B6766686B70757972
:105820007B7B7D7F7F8082848987807670747C7E9D
:10583000847C715B575A7597C3E3FEFFF8EDDAD0AD
:10584000C1BBAFABA2A3A2A6A79C8B6B4E2A170B22
:105850000C14212D353F414B4B4E4B4F5058677D1B
:105860009BAFC7CED5CDC4B8ACABA4A7A4AAA3A206
:105870009A958775635044393B3B474C53585A5C63
:105880005A5D5B61656C7684939EAFB4B7B3B0A884
:10589000A49E9C9C9C9E9A9B9592857C70655C5670
:1058A00056535C5D676569686868676D7063717E93
:1058B00096A8C6D6EEF5FFF6F1E4DBCBB8A894893E
:1058C00077746C746C726C726969625B51413526D5
:1058D00022101209120F1B223341536472838A97DC
:1058E0009BA8A4ABA4A9A1A39EA3A4A8ABADB7B445
:1058F000BBB7BEB4B2A29E8E8273685E534E43485D
:10590000424D4955555D5B626364656568656965CF
:105910006D6B777783889498A1A8AAB2B1B6AFB21D
:10592000A9A19C918D83715F50474A4E5F63657D4D
:1059300093AAB8BFC2BAB3A193877E79787E828DCD
:105940008E8F8A7F6E5A4C3F3F42536575858F928A
:105950008D8579746F717B8CA0ACB9B9B0A292833C
:1059600078736E7578808384847D7569645A5C5B16
:10597000626B747F878E8F8F8985827F8283879108
:1059800094978F836C564444516F99C8EDFFFEE2A3
:10599000BB8D6951516585ABC7D6C8AC7D4E250915
:1059A000071333516F838A847667554E4E5C65A426
:1059B0009890837C787070646454564D544A514773
:1059C0004F4146414A484E4E4F56545D5D6A6A7893
:1059D000757E81837B7A676A55819DB9BEB9AFAB0D
:1059E000B7CAE4EEF5E4E3D8E6EAFFF5F4D8CCBCB8
:1059F000C0BDB9AE9B83706C6367595439321D25A5
:105A00001E291D1B0908040D141B201D20203139DF
:105A10004F52645F706D83889D9DA9A5AFB0B7C1DB
:105A2000C7CAC4CAC4CEC5D1C4CBB6BAABB2A4A48B
:105A30005F7DABCBC39D74677FBEEDFFDDA87D7E30
:105A4000A1D6F3EBBF91797F9FBAC5AD8F6A5E5C3B
:105A5000707A8174644E3F37394450595447302727
:105A60002641596E6C5F443C436181938F7D6C6627
:105A7000728DABB2AE9B908896A6BCBEBCA89D931F
:105A8000969CA6A9A69A8D827981848F8B87726550
:105A90005A606B7878705C4F4D54646E73675F53D7
:105AA0005962737A8178766E7379838D897C665AB0
:105AB0005F7CB4D7D09E6540538FDBFFF4B56C415B
:105AC000487EBADDC99352292A4B768D8D714E35A9
:105AD0002F3F5974828A827769626C7F9FB5C1B209
